S31508000000A8040020010100083D0C0008D50B0008D3
S31508000010390C0008F70700088316000800000000DE
S31508000020000000000000000000000000A510000805
S3150800003099080008000000008F0F0008B911000891
S315080000401B0100081B0100081B0100081B01000812
S315080000501B0100081B0100081B0100081B01000802
S315080000601B0100081B0100081B0100081B010008F2
S315080000701B0100081B0100081B0100081B010008E2
S315080000801B0100081B0100081B0100081B010008D2
S315080000901B0100081B0100081B0100089D08000839
S315080000A01B0100081B0100081B0100081B010008B2
S315080000B01D1200081B0100081B0100081B0100088F
S315080000C01B0100081B0100081B0100081B01000892
S315080000D01B010008F11300081B0100081B0100089A
S315080000E01B0100081B0100081B010008DFF80CD0E3
S315080000F000F03EFB00480047DD200008A804002069
S315080001000648804706480047FEE7FEE7FEE7FEE7A3
S31508000110FEE7FEE7FEE7FEE7FEE7FEE7BD1100089D
S31508000120ED00000880EA010210B502F00043400025
S3150800013022D04A001FD0010E01EB1261C0F356000F
S31508000140C2F3560240F4000042F40002A0FB02206B
S3150800015000047F39140400D0401C50EA124001D430
S315080001604000491EC2B20C0604EBD010401C4008E1
S31508000170802A02D003E0002010BD20F001000029EB
S3150800018000DA0020184310BD2DE9FE4F81EA03046A
S3150800019004F0004421F0004100944FF0000B23F0D6
S315080001A0004350EA01045ED052EA03045BD0C3F36D
S315080001B00A54C1F30A552C44A4F2F3340194A0FB63
S315080001C00254C1F3130141F48011C3F3130343F43A
S315080001D0801301FB024400FB034E840A970A44EA93
S315080001E0815447EA8357A4FB076802958D0A05FBE5
S315080001F007854FEA932C04FB0C542705029D4FEA0A
S31508000200065847EA1637B5EB08056EEB070C870E56
S31508000210920E47EA811742EA8312A7FB0201B6EB60
S315080002200B0164EB00042B0D43EA0C335E1844EB18
S315080002301C50DA465146E7FB0201C5F313044FEAA0
S315080002400B3343EA14534FEA0432019C43EA06038C
S31508000250A4F10C040294009CCDE900B400F07BF9EB
S3150800026003B0BDE8F08F00200146F9E72DE9F04D0F
S3150800027081EA030404F0004B21F0004514464FF0D0
S31508000280000A23F0004150EA050220D054EA010290
S315080002901DD0C5F30A570246C5F31303C1F313006D
S315080002A0C1F30A5640F4801543F48013A7EB0608F9
S315080002B0101BD64608F2FD3873EB050002D308F189
S315080002C0010801E092185B41B8F1000F03DA00203B
S315080002D00146BDE8F08D00204FF48011064684469D
S315080002E00EE0171B73EB050705D3121B63EB05031B
S315080002F006434CEA010C49084FEA300092185B4164
S3150800030050EA0107EDD152EA030012D082EA04004E
S3150800031083EA0501084305D0101BAB4106D201222A
S31508000320002306E000224FF0004302E06FF00102CE
S3150800033053101AEB06004CEB085110EB0A0041EB80
S315080003400B01BDE8F04D00F0F7B8962300221146E0
S3150800035000F0C4B820F00040C10DC0F3160040F408
S3150800036000007F2901DA00207047962903DCC1F1D5
S315080003709601C840704796398840704700F0004299
S3150800038030F000400AD0C10D01F56071C0F31600C7
S3150800039042EA0151C208400711437047002001464E
S315080003A07047000030B5041E71F1000404DB4FF0FD
S315080003B00044404264EB0101141E73F1000405DB9E
S315080003C01C464FF00043524263EB04038B4208BFBE
S315080003D0824230BD30B5041E71F1000404DB4FF0D3
S315080003E00044404264EB0101141E73F1000405DB6E
S315080003F01C464FF00043524263EB0403994208BF80
S31508000400904230BD01F0004330B421F0004150EA7B
S31508000410010206D00A0DA2F56072C1F31301002A83
S3150800042002DC30BC00207047440F44EAC104C10016
S31508000430E01830BC00EBC25000F047B830B50B46A8
S31508000440014600202022012409E021FA02F59D42F6
S3150800045005D303FA02F5491B04FA02F52844151ECA
S31508000460A2F10102F1DC30BD2DE9F05F054600205E
S3150800047092469B4688460646814640241BE0284607
S3150800048041464746224600F094F953465A46C01A52
S31508000490914110D311461846224600F07BF92D1AD1
S315080004A067EB01084F4622460120002100F072F949
S315080004B017EB00094E41201EA4F10104DFDC484673
S315080004C031462A464346BDE8F09F0029A8BF704733
S315080004D0401C490008BF20F00100704710B4B0FA6C
S315080004E080FC00FA0CF050EA010404BF10BC704707
S315080004F049B1CCF1200421FA04F411FA0CF118BF21
S31508000500012121430843A3EB0C01CB1D4FEA0061EF
S315080005104FEA102042BF002010BC704700EBC350C2
S3150800052010440029A4BF10BC7047401C490008BFEE
S3150800053020F0010010BC704710B5141E73F10004BA
S3150800054008DA401C41F1000192185B411A4301D1B7
S3150800055020F0010010BD2DE9F04D92469B4611B1E1
S31508000560B1FA81F202E0B0FA80F22032904600F049
S3150800057011F904460F4640EA0A0041EA0B015346C0
S315080005805A46084313D0114653EA010019D0C8F158
S315080005904002504600F00DF905460E4650465946AB
S315080005A0424600F0F7F8084305D0012004E020464B
S315080005B03946BDE8F08D0020054346EAE0762C432F
S315080005C037430A986305E40AA0EB08000022FD0AEF
S315080005D044EA47540A3002D500200146E9E70105F6
S315080005E010196941DDE9084500196941BDE8F04D72
S315080005F0A2E72DE9FE4F804681EA0300C00F0C46AC
S31508000600009021F0004123F00045B8EB0200A94113
S3150800061005D24046214690461C460B46024623F024
S315080006200040104347D0270DC7F30A00C3F30A5109
S315080006300290401A019040286BDAC3F3130040F485
S31508000640801B0098924620B10023D2EB030A63EB85
S315080006500B0B01985946C0F14002504600F09AF833
S3150800066006460D4650465946019A00F0B2F810EB78
S3150800067008006141002487EA115284EAE7731A43A5
S3150800068040D0009A62B3019A012A4FEA075215DC54
S31508000690001B61EB02014FF0004202EA0752CDE966
S315080006A00042001C41F5801132462B46FFF753FFE6
S315080006B003B0BDE8F08F40462146F9E7001B61EB21
S315080006C00201001C41F5801300185B412018A2F5B1
S315080006D0001747EB030140EAD570B6196D4111E0E2
S315080006E06D084FEA360645EAC0754FEA0752001B01
S315080006F061EB0201001C41F5801149084FEA300000
S315080007000019514132462B4603B0BDE8F04FFFF7BA
S3150800071013BF0098012240000023D0EB020263EBCE
S31508000720E073009821464FEAE074B8EB000061EBED
S315080007300401E9E783F000435BE781F0004158E7ED
S31508000740C1F30A52C1F3130140F2FF3341F4801199
S315080007509A4202DA00200146704740F233439A4231
S31508000760A2F2334202DC524200F023B800F012B87B
S31508000770064C074D06E0E06840F0010394E80700E0
S3150800078098471034AC42F6D3FFF7B4FCD02B0008D8
S31508000790F02B0008202A04DB203A00FA02F1002098
S315080007A070479140C2F1200320FA03F319439040A1
S315080007B07047202A04DB203A21FA02F0002170470C
S315080007C021FA02F3D040C2F12002914008431946AB
S315080007D07047202A06DBCB17203A41FA02F043EA93
S315080007E0E07306E041FA02F3D040C2F120029140DC
S315080007F008431946704700BFFEE700002DE9FC5F75
S3150800080022480068FFF7A1FD0090FFF7B7FD804674
S3150800081000221F4BFFF72AFD824600221D4BFFF7D9
S31508000820B3FC064600224FF08043FFF71FFD04463F
S31508000830FFF7E8FD0190154800680C2820D91348F1
S315080008400068B0F5936F1BD210480068FFF77DFD6E
S315080008500090FFF793FD804600220D4BFFF706FD3B
S31508000860064600220B4BFFF78FFC044600224FF08A
S315080008708043FFF7FBFC8246FFF7C4FD019001E0C9
S31508000880002001900198BDE8FC9F00002000002090
S31508000890006AF840004075407047000010B54FF4F4
S315080008A0007000F015F850B10121084600F070FB01
S315080008B00020034908604FF4007000F003F810BDEB
S315080008C01C0000200149086070470000140401401C
S315080008D0014600200022074B1B6803EA0102054B6C
S315080008E014331B680B4013B10AB1012000E0002045
S315080008F07047000000040140002123498279002A3C
S315080009003AD00A46126803689A430B461A600A1DCB
S31508000910126803689A430B1D1A60027911440A6823
S3150800092003681A430A60184A0832126803689A4329
S31508000930154B08331A601A1D126803689A43124B3E
S315080009400C331A604279102A0ED11A1F12680368EE
S315080009501A430D4B08331A601A1D126803681A43A6
S31508000960094B0C331A600DE00749427911440A68AD
S3150800097003681A430A6005E0027911440A680368A5
S315080009809A430A6070470000000401400EB5012131
S31508000990092000F00DFB00F052F94FF40070ADF895
S315080009A0080028208DF80B0002A90B4800F058F81B
S315080009B00921012000F034F84FF40070009000205F
S315080009C08DF8040008208DF8050001208DF8060032
S315080009D06846FFF791FF0EBD000C01401CB50121CA
S315080009E0042000F0E5FA2020ADF8040010208DF868
S315080009F0070001208DF806004020ADF80000102001
S31508000A008DF8030001208DF8020001A9034800F0C3
S31508000A1027F86946014800F023F81CBD0008014084
S31508000A2030B500228B071C0F0F2303FA04F20B4B79
S31508000A308C1053F824309343084C8D1044F8253015
S31508000A4023468C1053F824308C07240F00FA04F43C
S31508000A502343024C8D1044F8253030BD0800014070
S31508000A602DE9F04102460025002600200023002437
S31508000A70002791F803C00CF00F0591F803C00CF09D
S31508000A80100CBCF1000F03D091F802C04CEA050522
S31508000A9091F800C0BCF1000F31D0146800202BE09B
S31508000AA04FF0010C0CFA00F3B1F800C00CEA03068B
S31508000AB09E4220D183004FF00F0C0CFA03F7BC437B
S31508000AC005FA03FC4CEA040491F803C0BCF1280FAC
S31508000AD006D14FF0010C0CFA00FCC2F814C00AE06B
S31508000AE091F803C0BCF1480F05D14FF0010C0CFA80
S31508000AF000FCC2F810C0401C0828D1D31460B1F815
S31508000B0000C0BCF1FF0F34DD546800202EE000F170
S31508000B10080C4FF0010808FA0CF3B1F800C00CEA0B
S31508000B2003069E4221D183004FF00F0C0CFA03F7FF
S31508000B30BC4305FA03FC4CEA040491F803C0BCF173
S31508000B40280F05D100F1080C08FA0CF8C2F8148031
S31508000B5091F803C0BCF1480F07D100F1080C4FF01B
S31508000B60010808FA0CF8C2F81080401C0828CED3F1
S31508000B705460BDE8F0810246002093680B400BB133
S31508000B80012000E00020704741617047016170470D
S31508000B9008B50121082000F00BFA4FF48070ADF873
S31508000BA0000010208DF8030003208DF80200694626
S31508000BB00748FFF755FF4FF40070ADF800004820CE
S31508000BC08DF8030069460248FFF74AFF08BD000092
S31508000BD0000C014000BFFEE710B520210748FFF7CB
S31508000BE0D5FF40210548FFF7D1FF40210348FFF70D
S31508000BF0CBFF20210148FFF7C7FF10BD00080140C1
S31508000C0010B520210548FFF7C1FF40210348FFF72B
S31508000C10BBFF40210148FFF7B9FF10BD000801409E
S31508000C2010B520210348FFF7B1FF20210148FFF73F
S31508000C30ABFF10BD0008014000BFFEE7704708B5CE
S31508000C404FF4C06000F060F817208DF8000000200F
S31508000C508DF8010001208DF802008DF80300684622
S31508000C6000F01AF808BD10B54FF4A06000F04CF873
S31508000C7010BD08B54FF4A06000F046F825208DF8A1
S31508000C80000001208DF801008DF802008DF80300A0
S31508000C90684600F001F808BD70B5002100230F2250
S31508000CA0C47804B3154C246804F4E064C4F5E0641D
S31508000CB0210AC1F10403CA40447804FA03F184788E
S31508000CC01440214309010E4C0678A155047804F016
S31508000CD01F050124AC4005786D11AD0005F1E0252E
S31508000CE0C5F8004109E0047804F01F050124AC406A
S31508000CF0044D0678761145F8264070BD0CED00E0E7
S31508000D0000E400E080E100E002490143024A116084
S31508000D10704700000000FA050CED00E070B50024ED
S31508000D2018E004F1B000002100F025F9002108467A
S31508000D3000F021F90021102000F01DF9002505E03A
S31508000D400121002000F017F9681CC5B2802DF7DBD9
S31508000D50601CC4B2082CE4DB70BD000008B5012194
S31508000D60042000F025F96020ADF8000010208DF869
S31508000D70030003208DF8020069463C48FFF770FE21
S31508000D8060213A48FFF702FF4FF4487001F06EF908
S31508000D900021AE2000F0EFF80021084600F0EBF83D
S31508000DA00021102000F0E7F80021402000F0E3F8C9
S31508000DB00021B02000F0DFF80021812000F0DBF8E8
S31508000DC00021FF2000F0D7F80021A12000F0D3F879
S31508000DD00021A62000F0CFF80021A82000F0CBF8CB
S31508000DE000213F2000F0C7F80021C82000F0C3F812
S31508000DF00021D32000F0BFF80021084600F0BBF818
S31508000E000021D52000F0B7F80021802000F0B3F8C3
S31508000E100021D82000F0AFF80021052000F0ABF83B
S31508000E200021D92000F0A7F80021F12000F0A3F84E
S31508000E300021DA2000F09FF80021122000F09BF82C
S31508000E400021DB2000F097F80021302000F093F80D
S31508000E5000218D2000F08FF80021142000F08BF877
S31508000E600021AF2000F087F808BD00000008014007
S31508000E7070B504460D4605F1B000002100F07BF878
S31508000E80102141EA1410002100F075F804F00F0053
S31508000E90002100F070F870BD2DE9F04707460E46B0
S31508000EA09046994600250024A8F12000C5B27F2F58
S31508000EB002DD0027B01CC6B2B9F1100F24D13146A5
S31508000EC03846FFF7D5FF002408E004EB0511194A58
S31508000ED0505C012100F04FF8601CC4B2082CF4DB0A
S31508000EE0701CC1B23846FFF7C3FF002409E004EBC3
S31508000EF0051108310F4A505C012100F03CF8601CCE
S31508000F00C4B2082CF3DB12E031463846FFF7B0FFCF
S31508000F1000240AE005EB4501074A02EB4101085D9A
S31508000F20012100F028F8601CC4B2062CF2DBBDE8EB
S31508000F30F0870000D0250008A82300082DE9F04115
S31508000F4004460F461546984600260FE0AA5D434616
S31508000F5039462046FFF7A0FF04F10800C4B2782CF2
S31508000F6002DD0024B81CC7B2701CC6B2A85D0028F2
S31508000F70ECD1BDE8F08170B504460D461DB1E0B26E
S31508000F8000F0C2FB02E0E0B200F0A8FB70BD7047BB
S31508000F9029B1064AD2690243044BDA6104E0034ADE
S31508000FA0D2698243014BDA617047000000100240A3
S31508000FB029B1064A92690243044B9A6104E0034A3E
S31508000FC092698243014B9A61704700000010024003
S31508000FD030B500210022002400232D4D6D6805F050
S31508000FE00C0121B1042905D0082923D105E0294D92
S31508000FF0056022E0274D05601FE0254D6D6805F464
S315080010007012234D6D6805F48034022505EB924273
S315080010101CB9214D554305600BE01D4D6D6805F45F
S3150800102000351DB11C4D5543056002E0194D554369
S31508001030056002E0174D056000BF00BF144D6D68DE
S3150800104005F0F0010909154D6B5C0568DD40456042
S315080010500F4D6D6805F4E061090A104D6B5C456833
S31508001060DD4085600A4D6D6805F46051C90A0B4D6F
S315080010706B5C4568DD40C560054D6D6805F440410B
S31508001080890B074D6B5CC568B5FBF3F5056130BD8B
S315080010900010024000127A0000093D0000000020FE
S315080010A010000020704710B500F002F810BD0000CF
S315080010B00CB50020019000903348006840F4803059
S315080010C03149086000BF3048006800F400300090DD
S315080010D00198401C0190009818B90198B0F5A06FC6
S315080010E0F1D12948006800F4003010B101200090C1
S315080010F001E0002000900098012843D123480068A9
S3150800110040F01000214908600846006820F00300F6
S3150800111008600846006840F0020008601A484068FF
S31508001120194948600846406848600846406840F4DF
S31508001130806048600846406820F47C10486008468D
S31508001140406840F4E81048600846006840F080703F
S31508001150086000BF0C48006800F000700028F9D04D
S315080011600948406820F00300074948600846406877
S3150800117040F00200486000BF0348406800F00C00D9
S315080011800828F9D10CBD00000010024000200240DA
S31508001190042808D14FF0E021096941F004014FF015
S315080011A0E022116107E04FF0E021096921F004010E
S315080011B04FF0E022116170477047000010B51348E0
S315080011C0006840F001001149086008464068104967
S315080011D008400E494860084600680E4908400B4911
S315080011E008600846006820F48020086008464068C1
S315080011F020F4FE0048604FF41F008860FFF753FF95
S315080012004FF000600449086010BD0000001002405D
S315080012100000FFF8FFFFF6FE08ED00E010B501211B
S31508001220880700F027F868B107480068401C064997
S31508001230086006480068401C0449086001218807C0
S3150800124000F009F810BD0000180000201C0000205E
S31508001250CA4302827047CA430282704721B1028894
S3150800126042F00102028004E002884FF6FE731A403B
S315080012700280704730B50246002000230024158AF4
S3150800128005EA0103958905EA010413B10CB10120A9
S3150800129000E0002030BD1AB183890B43838102E048
S315080012A083898B4383817047002202881D4B9842AD
S315080012B00ED01D4B98420BD0B0F1804F08D01B4B77
S315080012C0984205D01A4B984202D01A4B984204D13C
S315080012D04FF68F731A404B881A43174B984207D01C
S315080012E0164B984204D04FF6FF431A40CB881A4350
S315080012F002808B8883850B8803850A4B98420BD01E
S31508001300094B984208D00E4B984205D00D4B98428F
S3150800131002D00D4B984201D10B7A038601238382B2
S3150800132070470000002C01400034014000040040D2
S3150800133000080040000C0040001000400014004067
S315080013400040014000440140004801400EB501211B
S315080013500846FFF71DFE0A20ADF804004720ADF841
S3150800136000000020ADF8020069464FF08040FFF704
S315080013709BFF01218807FFF76BFF012211469007A3
S31508001380FFF789FF01218807FFF768FF0021012081
S31508001390FFF7FEFD0EBD08B54FF4E060FFF7B4FC9D
S315080013A01C208DF8000000208DF8010002208DF821
S315080013B0020001208DF803006846FFF76DFC08BDA2
S315080013C010B50020084908604FF480710748FFF7F8
S315080013D0DDFB00BF044800680228FBD34FF4807188
S315080013E00248FFF7D1FB10BD18000020000C014091
S315080013F070B5002540F22551084800F07EF858B12E
S31508001400064800F035F9C4B205484455681CC5B20B
S315080014102146024800F031F970BD0000003801404D
S315080014204000002021B1828942F40052828104E002
S3150800143082894DF6FF731A408281704700B585B0E0
S3150800144001210420FFF7B4FD01218803FFF7B0FD51
S315080014504FF40070ADF8100018208DF81300032023
S315080014608DF8120004A91C48FFF7FAFA4FF48060B9
S31508001470ADF8100004208DF8130004A91648FFF7EC
S31508001480EFFA8020ADF8100004208DF8130004A9A7
S315080014901148FFF7E5FA4FF4165000900020ADF812
S315080014A00400ADF80600ADF80800ADF80C000C20F5
S315080014B0ADF80A006946094800F06EF8FFF7D9FB4F
S315080014C0012240F22551054800F041F80121034860
S315080014D0FFF7A8FF05B000BD00080140003801402D
S315080014E002460020B1F5007F00D100BF13880B40EB
S315080014F00BB1012000E00020704770B502460024B9
S3150800150000230025002040F66A16B14200D100BF2C
S31508001510C1F3421501F01F03012606FA03F3012D54
S3150800152002D19689334006E0022D02D1168A33404D
S3150800153001E0968A33400C12012606FA04F416884E
S31508001540344013B10CB1012000E0002070BDF0B5A5
S315080015500346002400260025002040F66A17B942F3
S3150800156000D100BF1846C1F3421401F01F06012737
S3150800157007FA06F5012C01D10C3004E0022C01D142
S31508001580103000E014301AB107682F43076002E0F4
S315080015900768AF430760F0BD2DE9F04786B00546FA
S315080015A00E460024A24600BFA1460027B08900B116
S315080015B000BF2F462C8A4CF6FF700440F08804437F
S315080015C02C82AC894EF6F3100440B0883189084362
S315080015D0718908430443AC81AC8A4FF6FF40044046
S315080015E0B0890443AC8201A8FFF7F2FC1F48874282
S315080015F002D1DDF810A001E0DDF80CA0A88900F4FE
S31508001600004040B10AEBCA0000EB0A1031684900F5
S31508001610B0FBF1F807E00AEBCA0000EB0A103168E4
S315080016208900B0FBF1F86420B8FBF0F0040120094A
S31508001630642101FB1089A88900F4004040B13220DA
S3150800164000EBC900B0FBF1F000F00700044308E026
S31508001650322000EB09106421B0FBF1F000F00F0016
S3150800166004432C8106B0BDE8F0870000003801402D
S3150800167001468888C0F308007047C1F308028280D3
S31508001680704700BFFEE700002DE9F04105462C46ED
S3150800169020211148FFF778FA002619E0274607F0B7
S315080016A08007802F04D140210B48FFF76FFA03E02B
S315080016B040210948FFF768FA6006040E202106480B
S315080016C0FFF764FA20210448FFF75EFA701CC6B2D9
S315080016D0082EE3DBBDE8F0810008014010B504469A
S315080016E0FFF77AFA7820FFF7CFFFFFF799FA00207D
S315080016F0FFF7CAFFFFF794FA2046FFF7C5FFFFF783
S315080017008FFAFFF77DFA10BD10B50446FFF764FAA5
S315080017107820FFF7B9FFFFF783FA4020FFF7B4FFF9
S31508001720FFF77EFA2046FFF7AFFFFFF779FAFFF7D4
S3150800173067FA10BD0FB4054B10B503A9044A029801
S3150800174000F0DAF810BC5DF814FB0000B9200008B8
S315080017503C00002002E008C8121F08C1002AFAD17E
S3150800176070477047002001E001C1121F002AFBD113
S31508001770704700002DE9FF5F82B00021DDE90430E3
S31508001780020DDDF840B0034318D044F61050A2F21B
S31508001790FF3242431514119801281FD0A5EB0B0000
S315080017A0401C5FEA000A4FF000064E4FDFF83891FA
S315080017B0B046504615D5CAF1000413E01198012425
S315080017C04AA3012801D16FEA0B010298119AC0E9D0
S315080017D00031C0E9024206B0BDE8F09FCBF1000037
S315080017E0DFE704460021404A491842EB0450CDE998
S315080017F0001012E0E00707D032463B46404649460D
S31508001800FEF7C2FC8046894632463B4610461946D4
S31508001810FEF7BAFC06460F466410002CEAD1DDE94D
S315080018200401DDE90023BAF1000F06DAFEF7ACFC85
S3150800183042464B46FEF7A8FC05E0FEF717FD424672
S315080018404B46FEF713FD04460E460022284BFEF7CC
S31508001850C1FD03D84FF0FF30014607E00022254BB3
S3150800186020463146FEF7C5FEFEF76AFF102409E05A
S31508001870002C0ADB0A220023FEF7F6FD039B303212
S315080018801A55641E50EA0102F2D1641C039AC4F187
S3150800189011031444119A012A03D0012208430DD1D9
S315080018A00AE0084304D000204FF0110B119072E7AC
S315080018B0A3EB0B056D1E0DE05B4504DD4FF0000242
S315080018C005F1010504E003DA4FF00002A5F1010570
S315080018D0002AECD002981199C0E90231C0E9004506
S315080018E079E70000000014400000F03F30000000D7
S315080018F00000F0430000E03F2DE9FF4F95B09B46FE
S315080019008946064600250FE2252877D10024274672
S31508001910F84A0121059400E0044316F8013F203BEC
S3150800192001FA03F01042F7D130782A2811D06FF067
S315080019302F033078A0F13002092A16D8059A44F008
S31508001940020402EB820203EB42021044761C059065
S31508001950EFE759F8042B0592002A03DA504244F4BB
S315080019600054059044F00204761C30782E2816D1CF
S3150800197016F8010F44F004042A280DD06FF02F0240
S315080019803078A0F13003092B09D807EB870302EB5F
S315080019904303C718761CF3E759F8047B761C30789E
S315080019A06C280FD006DC4C2817D068280DD06A287A
S315080019B014D104E0742810D07A280FD10DE044F42D
S315080019C000140AE044F4801401E044F440147278E8
S315080019D0824202D104F58014761C761C307866287B
S315080019E00BD013DC582877D009DC002875D0452899
S315080019F0F6D04628F4D047281AD19DE118E0632886
S31508001A0035D0642879D0652812D195E1702873D02D
S31508001A1008DC6728F1D069286FD06E280DD06F28AA
S31508001A2006D1B5E073282CD0752875D0782874D0DF
S31508001A305A46179990476D1C75E1C4F3025002285F
S31508001A4009D003280DD0D9F8001004280DD00D6050
S31508001A5009F1040967E1D9F80010EA17C1E900524B
S31508001A60F6E7D9F800100D80F2E70D70F0E719F8DF
S31508001A70041B8DF8001000208DF80100EA460120AD
S31508001A8003E059F804AB4FF0FF3061074FF000014F
S31508001A9002D40DE008F101018846B9420FDA804503
S31508001AA0F8DB1AF808100029F4D108E008F101015A
S31508001AB088468142FADB1AF808100029F6D10598FB
S31508001AC05B46A0EB080721463846179A00F094FAB9
S31508001AD0284400EB080507E04DE029E10DE01AF877
S31508001AE0010B5A4617999047B8F10108F7D25B4699
S31508001AF021463846179A13E142E00A220092C4F3B7
S31508001B0002524FF0000A022A08D059F804CB032AD9
S31508001B104FEAEC710AD00DE029E02AE009F1070145
S31508001B2021F00702F2E802C1914609E00FFA8CFC9F
S31508001B304FEAEC71042A03D14FFA8CFC4FEAEC7198
S31508001B40002907DA0A460021DCF1000C61EB0201E4
S31508001B502D2202E0220504D52B228DF8042001222D
S31508001B6003E0E20701D02022F7E7904659E00A2170
S31508001B7002E010220DE010214FF0000A00910BE060
S31508001B8010224FF0000A44F004040827009203E0EC
S31508001B9008224FF0000A0092C4F30252022A05D026
S31508001BA059F804CB0021032A08D009E009F10701F6
S31508001BB021F00702F2E802C1914605E01FFA8CFC03
S31508001BC0042A01D10CF0FF0C4FF00008220728D593
S31508001BD0702806D0009B83F0100353EA0A0305D049
S31508001BE00EE040228DF80420012208E05CEA01029A
S31508001BF006D030228DF804208DF805000222904682
S31508001C00009B83F0080353EA0A030AD15CEA01023F
S31508001C1001D1620705D530228DF804204FF001085E
S31508001C207F1E582804D034A003900EA802900DE019
S31508001C3036A0F9E753466046009AFEF715FC844637
S31508001C400398825C0298401E029002705CEA0100CA
S31508001C50F0D1029806A9081A00F1200A600702D5F1
S31508001C6024F4803400E00127574502DDA7EB0A007B
S31508001C7000E0002000EB0A01009005984144401A54
S31508001C800590E00306D45B462146179A059800F0AE
S31508001C90B3F90544002706E001A85A46C05D17991E
S31508001CA090476D1C7F1C4745F6DBE0030CD55B4669
S31508001CB02146179A059800F09FF9054404E030205C
S31508001CC05A46179990476D1C0099481E009000299E
S31508001CD0F5DC08E0029802995A460078491C0291F8
S31508001CE0179990476D1CBAF10001AAF1010AF1DCB7
S31508001CF065E10000092801003031323334353637C2
S31508001D003839616263646566000000003031323339
S31508001D1034353637383941424344454600000000D9
S31508001D2000F058F90544761C307800287FF4ECADAD
S31508001D3019B02846BDE8F08F620700D4062709F1D6
S31508001D40070222F0070CFCE80223E14603F00048EC
S31508001D505FEA080C02D00FF2702C0DE05FEA045C13
S31508001D6002D50FF2682C07E05FEAC47C02D00FF2B6
S31508001D70602C01E0AFF2700C4FF0FF3823F00043FF
S31508001D80CDF850C065280CD006DC452809D0462871
S31508001D901DD047283DD13DE0662818D067287ED15A
S31508001DA038E00021112F01DB112000E0781CCDE975
S31508001DB0000106A90EA8FFF7DDFCDDE90F010E9A62
S31508001DC003910021009207F1010A04914DE04FF0BA
S31508001DD000400097CDE9011006A90EA8FFF7CAFC36
S31508001DE0DDE90F0203920E9B11990022DDF80CA083
S31508001DF00093049211B9791C00EB010AB7EB0A00AB
S31508001E0004D4C0F1FF3007F1010A0490AAEB0700D9
S31508001E10019044E0012F00DA01270021112F01DD8E
S31508001E20112000E03846CDE9000106A90EA8FFF703
S31508001E30A1FCDDE90F010E9A03910021049100929D
S31508001E40BA4621070CD40399514500DA8A46BAF1F5
S31508001E50010F05DD009AAAF10101515C302908D06D
S31508001E60B84202DA10F1040F06DA0121CDE90110B1
S31508001E7015E0AAF10101E9E7002805DC0499014407
S31508001E800491AAEB000102E0411C514500DD8A4697
S31508001E900499401A401C01904FF000400290200718
S31508001EA004D40198504501DBCDF8048000208DF854
S31508001EB04F0002980DF14F07B0F1004F25D02B20A7
S31508001EC00E9002984FF0020800280CDA4042029061
S31508001ED02D200E9007E00A210298FEF7AFFA30315E
S31508001EE0029007F8011DB8F10001A8F10108F2DC1B
S31508001EF002980028EFD1791E0E980870307800F005
S31508001F00200040F0450007F8020D12A8C01B00F19A
S31508001F1007081498007800B1012000EB0A0101981F
S31508001F2001EBE07105984144401A401E0590E00314
S31508001F3006D45B462146179A059800F05DF80544D5
S31508001F401498007818B15A46179990476D1CE00303
S31508001F5024D55B462146179A059800F04DF80544A6
S31508001F601CE00498002807DBDDE90301884203DD4D
S31508001F700098405C179901E0179930205A46904717
S31508001F80049805F10105401C04900198401E019033
S31508001F9004D12E205A46179990476D1CBAF10001B4
S31508001FA0AAF1010ADDDC05E017F8010B5A46179974
S31508001FB090476D1CB8F10001A8F10108F4DC5B46F6
S31508001FC02146179A0598ABE62D0000002B00000065
S31508001FD0200000002DE9F041044600251E4617465C
S31508001FE0880404D405E039462020B0476D1C641ED9
S31508001FF0F9D52846BDE8F0812DE9F04104460025CB
S315080020001E469046C80301D5302700E020278804DD
S3150800201004D505E041463846B0476D1C641EF9D51F
S315080020202846BDE8F081000010B56FF00400FFF700
S31508002030AFF80A4800680A49B0FBF1F00949087088
S315080020400846007800EB4001C1EBC0104FF6FF715F
S3150800205001EAC0000449088010BD000028000020DD
S3150800206000127A0014000020160000200146114ACA
S3150800207012884A434FF0E0235A6100229A611A46B1
S31508002080126942F001021A6100BF4FF0E02210699E
S3150800209000F001021AB100F48032002AF5D04FF0A0
S315080020A0E022126922F001024FF0E0231A610022B1
S315080020B09A6170471600002070B504460D46E1B2D5
S315080020C00548FFF7DAFA00BF80210348FFF708FA48
S315080020D00028F9D0204670BD0038014086B0FFF7C9
S315080020E0ADF9FFF7A1FFFEF7BEFD4FF4FA50FFF773
S315080020F0BDFFFEF773FCFEF731FEFEF70FFE05E0A7
S31508002100102384A202211846FEF718FF802184486E
S31508002110FEF731FD0028F3D0FEF700FE102381A25A
S3150800212002211846FEF70AFF44F62060FFF79EFFD5
S31508002130FEF7F4FD10237FA200211846FEF7FEFEE7
S31508002140FEF726FDFEF722FCFFF700F9FFF723F955
S3150800215001210846FEF71CFF0025002464208DF89F
S31508002160080069208DF8090073208DF80A003A20C6
S315080021708DF80B0030208DF80C008DF80D008DF8C9
S315080021800E002E208DF80F0030208DF810008DF8E7
S31508002190110063208DF812006D208DF813001023AE
S315080021A002AA03211846FEF7C9FEB1E0FFF708F9AF
S315080021B00020634908604FF400716248FEF7DBFCB3
S315080021C06149087006E04FF400715E48FEF7D3FCDB
S315080021D05D4908705C4800780028F4D0002058490A
S315080021E0086006E04FF400715648FEF7C4FC5649ED
S315080021F00870554800780128F4D0514800685349BA
S315080022000860FEF7FBFA05462846FEF7B7F80646C5
S315080022104F4A504BFEF7DEF817D22846FEF7AEF8BF
S3150800222006464D4A4D4BFEF7BDF80ED8641C4C4980
S315080022302846FDF777FF8046FEF7A0F82246CDE947
S315080022400001002147A0FFF775FA4FF07E51284696
S31508002250FDF768FF0646FEF77DF8C0B20A2190FB37
S31508002260F1F201FB12003030C0B28DF80C004B4978
S315080022702846FDF757FF0646FEF76CF8C0B20A2156
S3150800228090FBF1F201FB12003030C0B28DF80D0060
S3150800229033492846FDF746FF0646FEF75BF8C0B207
S315080022A00A2190FBF1F201FB12003030C0B28DF822
S315080022B00E002E208DF80F0039492846FDF732FF0B
S315080022C00646FEF747F8C0B20A2190FBF1F201FB79
S315080022D012003030C0B28DF8100032492846FDF79A
S315080022E021FF0646FEF736F8C0B20A2190FBF1F246
S315080022F001FB12003030C0B28DF81100102302AA7B
S3150800230003211846FEF71AFE42F21070FFF7AEFEDA
S315080023104CE70000446973636F6E6E656374000072
S3150800232000080140436F6E6E656374696E672E2EF2
S315080023302E000000436F6E6E6563746564000000CE
S315080023401C000020000C0140240000202000002072
S315080023507B14AE47E17A943F9A9999999999B93F2E
S315080023600000C842536F6D65626F6479206E6561BF
S31508002370726C793A207B74696D653A25642C206302
S315080023806F756E743A25642C2064697374616E6384
S31508002390653A252E3366636D7D00000000002041F6
S315080023A000007A4400401C460000000000000000BF
S315080023B0002F000000000700070000147F147F1498
S315080023C000242A7F2A12006264081323003649551E
S315080023D0225000000503000000001C2241000000F6
S315080023E041221C000014083E08140008083E08088C
S315080023F0000000A0600000080808080800006060E7
S315080024000000002010080402003E5149453E000025
S31508002410427F4000004261514946002141454B3107
S31508002420001814127F10002745454539003C4A49D3
S315080024304930000171090503003649494936000645
S315080024404949291E000036360000000056360000AD
S315080024500008142241000014141414140000412228
S31508002460140800020151090600324959513E007C00
S315080024701211127C007F49494936003E41414122EA
S31508002480007F4141221C007F49494941007F0909D3
S315080024900901003E4149497A007F0808087F000083
S315080024A0417F4100002040413F01007F081422413E
S315080024B0007F40404040007F020C027F007F0408F6
S315080024C0107F003E4141413E007F09090906003E52
S315080024D04151215E007F091929460046494949317B
S315080024E00001017F0101003F4040403F001F20409E
S315080024F0201F003F4038403F00631408146300075C
S315080025000870080700615149454300007F414100B2
S3150800251000552A552A55000041417F000004020152
S315080025200204004040404040000001020400002030
S3150800253054545478007F484444380038444444206E
S3150800254000384444487F00385454541800087E091B
S3150800255001020018A4A4A47C007F080404780000E3
S31508002560447D4000004080847D00007F10284400A0
S315080025700000417F4000007C04180478007C0804B1
S31508002580047800384444443800FC242424180018ED
S31508002590242418FC007C08040408004854545420D9
S315080025A000043F444020003C4040207C001C204062
S315080025B0201C003C4030403C004428102844001CA5
S315080025C0A0A0A07C004464544C441414141414149D
S315080025D000000000000000000000000000000000ED
S315080025E0000000F800000000000000333000000082
S315080025F000100C06100C0600000000000000000089
S3150800260040C07840C0784000043F04043F040400FA
S31508002610007088FC08300000001820FF211E00000A
S31508002620F008F000E018000000211C031E211E001F
S3150800263000F00888700000001E21232419272110A5
S3150800264010160E0000000000000000000000000048
S31508002650000000E0180402000000000718204000EF
S3150800266000020418E00000000040201807000000DF
S31508002670404080F0804040000202010F0102020043
S31508002680000000F0000000000101011F0101010027
S31508002690000000000000000080B07000000000008C
S315080026A00000000000000000000101010101010115
S315080026B000000000000000000030300000000000AC
S315080026C00000000080601804006018060100000081
S315080026D000E010080810E000000F102020100F007E
S315080026E0001010F8000000000020203F2020000005
S315080026F0007008080888700000302824222130005D
S3150800270000300888884830000018202020110E0064
S315080027100000C02010F8000000070424243F24000D
S3150800272000F80888880808000019212020110E00E2
S3150800273000E0108888180000000F112020110E00F4
S3150800274000380808C83808000000003F00000000EC
S315080027500070880808887000001C222121221C00AD
S3150800276000E010080810E0000000312222110F00D6
S31508002770000000C0C000000000000030300000006B
S3150800278000000080000000000000806000000000DB
S3150800279000008040201008000001020408102000F4
S315080027A0404040404040400004040404040404003F
S315080027B000081020408000000020100804020100D4
S315080027C0007048080808F0000000003036010000D4
S315080027D0C030C828E810E0000718272423140B0087
S315080027E00000C038E0000000203C23020227382001
S315080027F008F8888888700000203F202020110E00E5
S31508002800C0300808080838000718202020100800DB
S3150800281008F808080810E000203F202020100F00C4
S3150800282008F88888E8081000203F20202320180090
S3150800283008F88888E8081000203F200003000000F8
S31508002840C03008080838000007182020221E020099
S3150800285008F808000008F808203F210101213F2058
S31508002860000808F8080800000020203F2020000083
S3150800287000000808F8080800C08080807F00000073
S3150800288008F888C028180800203F200126382000AC
S3150800289008F8080000000000203F20202020300013
S315080028A008F8F800F8F80800203F003F003F20002D
S315080028B008F830C00008F808203F200007183F0035
S315080028C0E01008080810E0000F10202020100F0064
S315080028D008F808080808F000203F21010101000057
S315080028E0E01008080810E0000F18242438504F009C
S315080028F008F8888888887000203F2000030C30205C
S3150800290000708808080838000038202121221C0099
S31508002910180808F8080818000000203F20000000E2
S3150800292008F808000008F808001F202020201F00CB
S315080029300878880000C83808000007380E0100002B
S31508002940F80800F80008F800033C0700073C0300F5
S31508002950081868808068180820302C03032C30205B
S315080029600838C800C83808000000203F20000000CA
S3150800297010080808C8380800203826212020180022
S31508002980000000FE020202000000007F40404000F6
S31508002990000C30C000000000000000010638C0002E
S315080029A000020202FE000000004040407F000000D6
S315080029B000000402020204000000000000000000FB
S315080029C000000000000000008080808080808080F9
S315080029D000020204000000000000000000000000E1
S315080029E000008080808000000019242222223F20D7
S315080029F008F8008080000000003F112020110E001A
S31508002A000000008080800000000E112020201100A8
S31508002A10000000808088F800000E112020103F205A
S31508002A200000808080800000001F222222221300DE
S31508002A30008080F0888888180020203F2020000029
S31508002A400000808080808000006B949494936000DE
S31508002A5008F8008080800000203F210000203F20E9
S31508002A6000809898000000000020203F20200000E9
S31508002A70000000809898000000C08080807F0000D9
S31508002A8008F8000080808000203F24022D302000B6
S31508002A90000808F8000000000020203F2020000061
S31508002AA08080808080808000203F20003F20003F7B
S31508002AB08080008080800000203F210000203F2089
S31508002AC00000808080800000001F202020201F003A
S31508002AD0808000808000000080FFA12020110E0069
S31508002AE00000008080808000000E112020A0FF805A
S31508002AF0808080008080800020203F212000010007
S31508002B00000080808080800000332424242419005B
S31508002B10008080E0808000000000001F2020000068
S31508002B208080000000808000001F202020103F20A9
S31508002B30808080000080808000010E300806010039
S31508002B4080800080008080800F300C030C300F00DE
S31508002B5000808000808080000020312E0E31200009
S31508002B60808080000080808080818E701806010039
S31508002B7000808080808080000021302C2221300057
S31508002B8000000000807C020200000000003F404078
S31508002B9000000000FF00000000000000FF00000029
S31508002BA00002027C800000000040403F0000000058
S31508002BB000060101020204040000000000000000F3
S31508002BC0FFFFFFFFFFFFFFFFFFFFFFFFFFFFFFFF07
S31508002BD0F02B0008000000204000000054170008F1
S31508002BE0302C000840000020680400006417000824
S31508002BF00000000001020304010203040607080995
S31508002C0002040608000000000000000000000000A2
S31508002C10000000000000000000A24A0400000000B6
S31508002C20000000000102030406070809000000006E
S705080000ED05
